:020000040800F2
:100000008007002099010008A1010008A301000851
:10001000A5010008A7010008A901000800000000D0
:10002000000000000000000000000000AB0100081C
:10003000AD01000800000000AF0100086D100008CD
:10004000B3010008B3010008B3010008B3010008C0
:10005000B3010008B3010008B3010008B3010008B0
:10006000B3010008B3010008B3010008B3010008A0
:10007000B3010008B3010008B3010008B301000890
:10008000B3010008B3010008F10C0008B301000837
:10009000B3010008B3010008B3010008B301000870
:1000A000B3010008B3010008B3010008B301000860
:1000B000B3010008B301000800000000B30100080C
:1000C000B30100080000000000000000B3010008B8
:1000D00000000000B3010008B301000800000000A8
:1000E000B3010008B3010008B301000800F002F8F2
:1000F00000F042F80AA090E8000C82448344AAF180
:100100000107DA4501D100F037F8AFF2090EBAE87D
:100110000F0013F0010F18BFFB1A43F0010318473B
:100120005411000074110000103A24BF78C878C13F
:10013000FAD8520724BF30C830C144BF04680C60ED
:10014000704700000023002400250026103A28BF35
:1001500078C1FBD8520728BF30C148BF0B60704739
:100160001FB59DE8030000F0B5FB00F0B3F81FBD1C
:1001700010B500F018F910BD00F048F91146FFF76E
:10018000EFFF01F027F800F04DFB03B4FFF7F0FF9D
:1001900003BC00F011FD00000948804709480047F2
:1001A000FEE7FEE7FEE7FEE7FEE7FEE7FEE7FEE727
:1001B000FEE7FEE704480549054A064B7047000084
:1001C00075100008ED000008800100208007002065
:1001D00080030020800300200FB4044910B503AA57
:1001E000029800F049F810BC5DF814FB6400002090
:1001F0004FF0013C50F8042B51F8043B9A4221D1B6
:10020000A2EB0C03934313EACC1317D150F8042B41
:1002100051F8043B9A4215D1A2EB0C03934313EA25
:10022000CC130BD150F8042B51F8043B9A4209D15E
:10023000A2EB0C03934313EACC13DBD04FF0000086
:10024000704700BFD01A01BAB1FA81F101F018016C
:1002500022FA01F0CB40DBB2C0B2C01AC1F12001DA
:100260002CFA01F3D11A914311EAC311E6D1704778
:100270007047704770470000074B70B50D467B44D0
:1002800000F011F80446284600F020F810B14FF0B5
:10029000FF3070BD204670BDBF0F000001694A1CD1
:1002A00002610878704700B58FB0CDE901310021B7
:1002B000059105497944CDE903101146684600F0DF
:1002C000F1F80FB000BD0000E5FFFFFF007B00F07C
:1002D0008000704710B54248542100F0B3FA4148FD
:1002E000542100F0AFFA4048542100F0ABFA3F49E6
:1002F0003B483C4A3F4B08603D490A603A49196017
:10030000531C0365481C1065012008653B48344AAE
:1003100039A1784400F0E8F920B9384878440A381F
:1003200000F089FA37482F4A35A1784400F0DCF90B
:1003300020B9344878440A3800F07DFA32482A4A15
:100340002FA1784400F0D0F920B92F4878440A381A
:1003500000F071FA40232248DC000021224600F020
:10036000A0F920B125487844543800F064FA1D48BB
:1003700022464023002100F094F920B1214878441E
:10038000543800F058FA184822461023002100F093
:1003900088F9002806D01C487844BDE8104056383B
:1003A00000F049BA10BD104870B5006D20F001048E
:1003B0000B4800F011FA0B4800F00EFA0A4800F062
:1003C0000BFA09E0206D20F00105204600F004FA48
:1003D000204600F040F82C46002CF3D170BD000000
:1003E0001000002064000020B80000200000002061
:1003F0000400002008000020720000004C0F0000E4
:10040000770000003B0F0000140F0000754600F05D
:1004100041FAAE4605006946534620F0070085467E
:1004200018B020B5FFF7C6FEBDE820404FF000062B
:100430004FF000074FF000084FF0000BAC46ACE85F
:10044000C009ACE8C009ACE8C009ACE8C00921F0BB
:1004500007018D46704770B50446051F00F01EFA6F
:100460000068002C14BF446870BD002C18BFAC425B
:100470003CBF20466468F8D301680A18AA4218BF36
:10048000456003D12A680546114401602868411976
:10049000A1421CBF6C6070BD61686960216808443E
:1004A000286070BD2DE9F04106460024D6E90170B0
:1004B000F5688046304603E04146B847641C304644
:1004C000A8470028F8D12046BDE8F0812DE9F04783
:1004D00005460C46C86820F4201040F48000C8602F
:1004E000800602D5084600F026FBE06841F2820152
:1004F0004FF0FF390140022903D0204600F0C4FA32
:10050000B5E000F42041B1F5004F0FD1C00306D58E
:100510006168E06A884200D80846606006E02069A9
:10052000E0626060606900F0EBFDA061A0680022FD
:10053000EEB200280DDAE1688B050AD4C043A06052
:1005400041F490302260E0606068411C6160067098
:10055000A5E0E0689046226040F40050E060206929
:1005600068BB606900F0CEFD012704F12405A0B14D
:10057000A08910F4407F08D0E06900F0DAF920612A
:1005800018B1E06840F4006016E0E7612561E068BA
:1005900020F4407040F480600EE0E06900F0C9F99A
:1005A00000282061F1D0E06840F4006010F4407F42
:1005B000E06002D140F48070E06020696060E06833
:1005C00025696FF0010AC1051FD56168E06A88429C
:1005D00000D80846411B04D02246284600F05EFAA7
:1005E000F0BBE068010203D5E562C4E9015854E0BC
:1005F000691CE1626160E16940F48030491EC4E930
:10060000021030462E70BDE8F087010202D500F4DA
:1006100080320AE06068411C61600670E0680A2E62
:1006200040F48030E06006D00022E16A60688142D8
:1006300003D90B4602E00122F7E70346A7895B1BBB
:100640007F0503D4E7699F4200DDE2B1814200D813
:100650000146E5620F1AC4E90158002B09DD00E0EC
:1006600005E022461946284600F018FA08B1484627
:10067000C9E747B1A069E5626560C01BA061E06899
:1006800040F01000E060E068000208D56168A069F1
:10069000E562491B08446560A0615046B3E73046F7
:1006A000B1E770B5C468A50713D0650211D4B2F5DF
:1006B000807F09D0B2F5007F06D0B2F5806F08D1F7
:1006C000012300F1240106E05D1E6FF07F46B54274
:1006D00001D3012070BD0161C361416024F47061E8
:1006E0001143C160002070BD2DE9F0410C46164653
:1006F000070047D0104600F06FF82078611C612891
:100700000AD0722802D077283CD102E001250024CB
:1007100005E00225042402E0082448F2020511F84D
:10072000010B2B2806D0622809D011F8010C74287F
:100730000AD00BE045F0030544F00204EFE745F072
:10074000040544F00104EAE744F010043846214669
:1007500000F0E0FC411C15D00021316171604FF4C4
:100760000071F560F1617061200704D53046022206
:10077000002100F00DF9306D40F001003065304689
:10078000BDE8F0810020FBE72DE9F0410D4606466B
:10079000104C206DC10704D0410804D020F00104A2
:1007A000F7E722460EE0542000F0C3F807000ED011
:1007B000206D47F00101084354212065384600F0C0
:1007C00041F83A4629463046BDE8F0418CE7002022
:1007D000D6E70000100000202DE9F04704464FF056
:1007E00000094FF0FF37C568D4E90486A80707D091
:1007F000204600F07DF9304600F078FC002802DA4F
:100800003846BDE8F087280502D54046FFF723FEAD
:100810004C21204600F016F8206D20F001002065E4
:100820004846EEE710B50446AFF300802046BDE829
:100830001040FFF7AABC10B500F0A4F9BDE81040C5
:1008400000F09AB94FF0000200B513469446964660
:10085000203922BFA0E80C50A0E80C50B1F12001D3
:10086000BFF4F7AF090728BFA0E80C5048BF0CC081
:100870005DF804EB890028BF40F8042B08BF7047DF
:1008800048BF20F8022B11F0804F18BF00F8012B51
:1008900070470000004870470C0100200048704776
:1008A00014010020704770477047704738B5044600
:1008B0000A4600206946AFF30080002808BF38BD13
:1008C00002460099204600F084F9012038BD01203D
:1008D00000F0D3B9F8B5AFF30080054600200C4610
:1008E000102000BF0646A819A0420DD9324669461D
:1008F0000020AFF30080070008BF00F0BEF90098A9
:10090000A04218BF0546C419FFF7C8FF0560074697
:10091000F01D20F007004619284600F053F9B442B4
:1009200008BFF8BDA21B31463868BDE8F84000F0AA
:1009300050B970B50646FFF7B1FF056806F10B0028
:1009400020F00704B4429CBF002070BD2B466A68AB
:10095000BAB11068A04210D304F1080188423CBF2C
:100960005068586007D35168101941601168091B1D
:10097000016058601460101D70BD13465268002A53
:10098000E7D121462846FFF791FF0028DED170BD50
:100990002DE9F041044616460D464769007B800765
:1009A0002ED0384600F0AEFB50BB3EB3012E02D035
:1009B000022E25D104E0204600F025F905441DE073
:1009C000384600F09DFBE168002841F01001E1602D
:1009D00005DA204600F058F80120BDE8F081C9038F
:1009E0000BD56268E16A914200D81146A2691144B0
:1009F0002269891A814200DD08460544002D01DA8A
:100A00000220EAE7E16A6068E268814206D2910367
:100A1000E06203D522F4003141F01002A6690027FC
:100A2000AE4213DCE16A814201D90B4600E0034685
:100A300003EB060C2369ACEB030CAC4506DD8142ED
:100A400001D98C4600E084469C4505D1A76027600B
:100A500042F02000A5620DE0AD1BE669AE1B8142AD
:100A6000A66000D90846C01A281A2060581960608C
:100A700022F0200003490840E060002084F848701C
:100A8000ABE70000BFCFD7FFC16821F4001141F0F0
:100A90008001C16000218160016070472DE9F0474D
:100AA000814614460E464FF0FF383248D5685769E4
:100AB000054209D03846A16900F05EFB002811DB31
:100AC0002C48C0430540E5602B463246494638462F
:100AD00000F056FBA16920F00042B21A1144002830
:100AE000A16103D02046FFF7CFFF4046BDE8F08765
:100AF00070B504460569C06A6168884200D8084636
:100B0000E16821F42011E160C90312D5A84208D0A0
:100B10002246411B2846FFF7C1FF10B14FF0FF30BE
:100B200070BD0020E562C4E90150E06820F4803027
:100B3000E060002070BD10B50446C06820F02000C1
:100B4000E060A16AA06988420DD02046FFF7D0FF7F
:100B5000E06820F4405040F01000E060A06AA0611E
:100B60002069E062606044F24001E0688843E06030
:100B700010BD000010000200002801D000F01CB8D9
:100B80007047000010B5014602A000F05DF801209A
:100B900010BD000053494752545245443A20526513
:100BA0006469726563743A2063616E2774206F70A4
:100BB000656E3A200000000001491820ABBEFEE738
:100BC0002600020000210160C0E9011070471020DA
:100BD0007047034640688C46002818BF88423CBFD7
:100BE00003464068F8D318681844884207D00CF1CF
:100BF000030020F00700001D411A521A0146081D8B
:100C00000A60FFF728BC10B50146C268900703D000
:100C1000900607D5886A0AE000F03EF801210160DD
:100C2000881E10BD8B69486818440B69C01A91F87A
:100C300048301BB191F84910401A10BD1103FCD582
:100C40000028FADD401E10BD70B505460C460A208E
:100C500000E06D1C00F018F835B128780028F8D1B4
:100C600002E0641C00F010F814B120780028F8D1DC
:100C7000BDE870400A2000F007B810B500F010F889
:100C8000BDE81040FFF778BF08B569468DF8000051
:100C90000320ABBE08BD7047004870470C01002020
:100CA00010B5012805D0002103A0FFF7CDFF0120DA
:100CB00010BD09A1F8E7000053494752544D454D76
:100CC0003A204F7574206F662068656170206D65ED
:100CD0006D6F7279000000003A2048656170206DE8
:100CE000656D6F727920636F7272757074656400E0
:100CF00080B50AA0FFF770FA40F26D10C2F2000052
:100D00000121017042F24C40C4F20100006840F23F
:100D10007011C2F20001086080BD00BF4144433140
:100D2000204952512048616E646C657200000000D9
:100D30007047000080B500F089F880BD80B500F0F4
:100D400095F880BD80B500F08FF8012000F0BCF868
:100D500080BD000080B502A0FFF73EFA80BD00BF55
:100D60000A45534352494249454E444F204C4F5344
:100D70002056414C4F5245530000000040F60061A0
:100D8000CEF20001D1F88020D2071CBF09685FEACB
:100D9000C17100D170474FF0604100BF0A68002A5E
:100DA000FCD04FF0604108707047000080B541F200
:100DB0001800C4F2020001684FF6E07241F0080129
:100DC000016040F60040C4F20100C1689143C16077
:100DD00041684FF6FF7241F0333141604168C3F220
:100DE0003F3221F0CC314160016841F0405141F087
:100DF0004C710160016811400160382000F00AF870
:100E00000E2000F007F8012000F004F8062000F0A2
:100E100001F880BD40F60C41C4F201010A680302EA
:100E200022F080020A600A6842EA0020086008682E
:100E300003F1FF0210400860086840F020000860DD
:100E4000086820F0200008607047000040F2781029
:100E5000C2F200000068704740F27810C2F2000051
:100E600000210160704700007047000040F27010E0
:100E7000C2F200000068704780B540F27011C2F203
:100E8000000100220A6041F21801C4F202010A685E
:100E9000002842F400720A6040F6000144F2043275
:100EA000C4F20101C4F244420A6042F20841C4F2B1
:100EB00001010A6842F001020A604FF038028A60BC
:100EC00018BF00F07FF980BD80B542F20841C4F23E
:100ED00001010122CA6218B1086840F002000860EE
:100EE000086840F00100086000F0F0F880BD0000E4
:100EF00080B50120FFF7C0FF00F074F9FFF7ACFFE9
:100F0000FFF754FFFFF714FFFFF71CFF002080BD21
:100F100010B540F26D14C2F20004207818B1FFF74A
:100F20000DFF0020207040F26C14C2F20004207803
:100F300018B1FFF7FFFE0020207040F26E14C2F2DD
:100F40000004207818B1FFF705FF00202070002072
:100F500010BD000040F27410C2F20000018801319F
:100F60008AB2052A018007D140F26E11C2F2000157
:100F700001220A7000210180002070470020704784
:100F800080B500F001F880BD82B041F2040000217C
:100F9000C4F202000191009150F8041C41F4803128
:100FA00040F8041C50F8041C01F400310091019930
:100FB00001310191009919B90199B1F5A06FF1D1F1
:100FC00050F8041C890354BF0021012100910099AD
:100FD000012936D142F20001C4F202010A6842F04E
:100FE00010020A600A6822F003020A600A6842F0EE
:100FF00002020A600168016001680160016841F451
:1010000080610160016821F47C110160016841F494
:10101000E811016050F8041C41F0807140F8041C94
:1010200050F8041C8901FBD5016821F0030101601F
:10103000016841F002010160016801F00C0108291A
:10104000FAD102B070470000B0B501380024B4EB0B
:10105000106F18BFB0BD4EF21005CEF200056860EB
:1010600000F03CF80720AC602860B0BD80B5FFF709
:1010700071FF80BD80B541F20000C4F2020001683A
:10108000002241F0010101604168CFF6FF021140EA
:10109000416001684FF6FF72CFF6F66211400160C1
:1010A000016821F480210160416821F4FE01416062
:1010B0004FF41F018160FFF763FF4EF60850CEF238
:1010C00000004FF00061016080BD00004EF2001092
:1010D000CEF200004FF48021016070474EF623509D
:1010E000CEF20000F02101707047000048F20101CB
:1010F000411A0020022988BF4FF0FF3070470000DE
:101100000020704748F20101411A0020032938BF2E
:101110000120704710B5C8B1044600783A2815D1AF
:101120000FA12046FFF764F898B10FA12046FFF702
:101130005FF888B10EA12046FFF75AF84FF0FF3153
:10114000002808BF48F20301084610BD4FF0FF30E9
:1011500010BD48F2010010BD48F2020010BD00BFF2
:101160003A535444494E00003A5354444F555400A6
:101170003A535444455252004FF0FF30704700003C
:10118000B0B5144648F2030290420CD048F2020275
:10119000904213D184B14D1E15F8010F00F04CF8A8
:1011A000013CF9D108E03CB14D1E00BF15F8010F1C
:1011B00000F03EF8013CF9D10020B0BD4FF0FF3007
:1011C000B0BD000042F20440C4F2010020210160E1
:1011D00070470000FFF78CFEFFF79AFEFFF7CEFE88
:1011E000FAE7000080B540F20C00C2F2000000688F
:1011F0004CF6CD41CCF6CC41A0FB010140F26D1084
:10120000C2F200000022027040F26C10C2F2000034
:10121000027040F26E10C2F20000027040F27410D0
:10122000C2F200000280C808FFF70EFF002080BD58
:1012300080B5FFF7A3FD80BD80B5FFF79FFD80BDA2
:101240008A68002A01DCFFF741B9521E8A604A68A9
:10125000C0B2531C4B60107070473A53544445520F
:1012600052003A535444494E003A5354444F555453
:101270000000000094120008000000201000000090
:1012800028010008A41200081000002070070000C8
:101290004401000800000000000000000000000001
:0412A00000A24A045A
:040000050800019955
:00000001FF
