:020000040800F2
:1000000068060020750100087D0100087F010008D6
:10001000810100088301000885010008000000003C
:100020000000000000000000000000008701000840
:1000300089010008000000008B0100088D01000804
:100040008F0100088F0100088F0100088F01000850
:100050008F0100088F0100088F0100088F01000840
:100060008F0100088F0100088F0100088F01000830
:100070008F0100088F0100088F0100088F01000820
:100080008F0100088F010008250400088F01000877
:100090008F0100088F0100088F0100088F01000800
:1000A0008F0100088F0100088F0100088F010008F0
:1000B0008F0100088F010008000000008F01000878
:1000C0008F01000800000000000000008F01000800
:1000D000000000008F0100088F01000800000000F0
:1000E0008F0100088F0100088F01000800F002F85E
:1000F00000F031F80AA090E8000C82448344AAF191
:100100000107DA4501D100F026F8AFF2090EBAE88E
:100110000F0013F0010F18BFFB1A43F0010318473B
:1001200028060000380600000023002400250026D1
:10013000103A28BF78C1FBD8520728BF30C148BF4A
:100140000B607047642900F07D80002070471FB568
:100150001FBD10B510BD00F02AF91146FFF7F7FFDB
:1001600000F0CAFA00F048F903B4FFF7F2FF03BC4D
:1001700000F050F90948804709480047FEE7FEE7CC
:10018000FEE7FEE7FEE7FEE7FEE7FEE7FEE7FEE747
:1001900004480549054A064B70470000A9050008B8
:1001A000ED000008680000206806002068020020BA
:1001B000680200200FB41CB5074B06AA7B446946B1
:1001C0000090059800F0DBF80020694600F0EAF89E
:1001D0001CBC5DF814FB0000E50100002DE9F041B6
:1001E0000E460446002020622046E168884730B36E
:1001F000252805D0D4E901219047206A401CF2E768
:10020000E168204600278847050018D0A5F1410085
:10021000192802D820354FF4006732462946204677
:100220002760FFF78FFF40B1012804D0F61D26F0AC
:1002300007060836D8E7361DD6E72846DAE7206AEB
:10024000BDE8F0812DE9F0410646002410687529CB
:10025000314616A510D0AFF30080002802DA4042E4
:1002600013A507E031688A0701D512A502E0490706
:1002700004D511A5012401E0AFF3008000210A227A
:1002800006F1240709E0B0FBF2FCB0FBF2F302FB3D
:100290001C00303078541846491C0028F3D12346FE
:1002A0002A463046BDE8F04100F00BB800000000DF
:1002B0002D0000002B000000200000007047704758
:1002C00070472DE9F0470D4699469246044600F1E5
:1002D00024080168880604D5E06921F01001216036
:1002E00000E00120A84201DD471B00E00027A169D2
:1002F0007A1902EB0900081AA0612078C00602D41E
:100300002046AFF30080002608E0D4E901211AF866
:1003100006009047206A401C761C20624E45F4DBA4
:100320002078C0060AD52046AFF3008006E0D4E965
:10033000012130209047206A401C2062381EA7F11E
:100340000107F4DC07E0D4E9012118F80500904723
:10035000206A401C2062281EA5F10105F3DC20461E
:10036000AFF300802078000602D50220BDE8F087B8
:100370000120FBE701694A1C02610878704700B55B
:100380008FB0CDE901310021059105497944CDE9CE
:10039000031011466846FFF721FF0FB000BD0000B3
:1003A000E5FFFFFF0A6802F8010B0A607047754617
:1003B00000F02CF8AE4605006946534620F00700D1
:1003C000854618B020B5FFF7E3FEBDE820404FF0AA
:1003D00000064FF000074FF000084FF0000BAC464E
:1003E000ACE8C009ACE8C009ACE8C009ACE8C00999
:1003F00021F007018D46704710B50446AFF3008029
:100400002046BDE81040FFF7AFBE0000004870472F
:100410000000002001491820ABBEFEE726000200C4
:100420007047000042F24C40C4F20100006840F204
:100430006001C2F20001086070470000B0B542F2EE
:100440000844C4F20104012538202560A060012081
:1004500000F0FEF8202044F8040CE562206840F02B
:1004600002002060B0BD000080B542F20840C4F236
:100470000100016841F00101016000F035F980BD23
:1004800040F60C0040F6B431C4F20100C4F2484119
:1004900040F80C1C44F6B401C4F2444140F8081C76
:1004A000016841F480610160016841F0040101606C
:1004B0007047000041F21800C4F20200016841F0E8
:1004C000FC010160016841F400710160416841F084
:1004D00001014160416841F0020141607047000044
:1004E00080B500F001F880BD82B041F20400002127
:1004F000C4F202000191009150F8041C41F48031D3
:1005000040F8041C50F8041C01F4003100910199DA
:1005100001310191009919B90199B1F5A06FF1D19B
:1005200050F8041C890354BF002101210091009957
:10053000012936D142F20001C4F202010A6842F0F8
:1005400010020A600A6822F003020A600A6842F098
:1005500002020A600168016001680160016841F4FB
:1005600080610160016821F47C110160016841F43F
:10057000E811016050F8041C41F0807140F8041C3F
:1005800050F8041C8901FBD5016821F003010160CA
:10059000016841F002010160016801F00C010829C5
:1005A000FAD102B07047000080B541F20000C4F2F9
:1005B00002000168002241F0010101604168CFF6AC
:1005C000FF021140416001684FF6FF72CFF6F662FC
:1005D00011400160016821F480210160416821F42B
:1005E000FE0141604FF41F018160FFF779FF4EF675
:1005F0000850CEF200004FF00061016080BD0000A5
:100600001820C4F200004FF47A7101844FF47A612B
:10061000818441F2101101814FF44051018041F277
:100620003001818041F61F41018242F20F718182C7
:10063000704700004FF080400121018070470000AA
:1006400080B54FF47A71484380B200F001F880BD64
:1006500040F20041C4F20001013888850020088280
:1006600001200880088AC007FCD00020088070475D
:1006700040F22840C4F2000047210180704700008A
:1006800043F60800C4F2010042F20C01818041F6F9
:100690004C5101807047000043F60001C4F2010193
:1006A0000A885206FCD588807047000010B584B0D7
:1006B0000DF10604024604A12046FFF77BFD20460B
:1006C00000F004F804B010BD2564000010B50178F6
:1006D000002908BF10BD441EC8B2FFF7DDFFA17896
:1006E00001340029F8D110BD4EF20010CEF2000006
:1006F0004FF4802101607047FFF7DCFEFFF7C0FE7A
:10070000FFF7BEFFFFF77CFFFFF7B2FFFFF796FE94
:10071000FFF7AAFEFFF78EFF40F2600507A4C2F2C2
:10072000000500BF41F28830FFF78AFF2046FFF73F
:10073000CDFF2868FFF7BAFFF4E700BF566F6C746F
:100740006167653A2000000058070008000000209B
:08075000680600002801000802
:040000050800017579
:00000001FF
